:0300000002086E85
:0C086E00787FE4F6D8FD758109020800CF
:10080000209014E5094508700E12084B12087A75FD
:10081000080075090180E9209016E5096401450882
:10082000700E12084B12087F75080075090280D0FF
:100830002090CDE5096402450870C57F01FE1208CD
:0B0840004E120884E4F508F50980B5AD
:05087A00D296C2972296
:05087F00C296D2972291
:05088400C296C297229C
:03084B007F01FE2C
:10084E00E4FDFCC3ED9FEC9E5015E4FBFA0BBB00E0
:0F085E00010ABA03F8BBE8F50DBD00010C80E4F8
:01086D002268
:00000001FF
